{"abi":[{"type":"constructor","inputs":[{"name":"_usdc","type":"address","internalType":"address"},{"name":"_greenFund","type":"address","internalType":"address"},{"name":"_treasury","type":"address","internalType":"address"},{"name":"initialOwner","type":"address","internalType":"address"}],"stateMutability":"nonpayable"},{"type":"function","name":"BPS_DENOMINATOR","inputs":[],"outputs":[{"name":"","type":"uint256","internalType":"uint256"}],"stateMutability":"view"},{"type":"function","name":"GREEN_FEE_BPS","inputs":[],"outputs":[{"name":"","type":"uint256","internalType":"uint256"}],"stateMutability":"view"},{"type":"function","name":"MAX_NOTE_LENGTH","inputs":[],"outputs":[{"name":"","type":"uint256","internalType":"uint256"}],"stateMutability":"view"},{"type":"function","name":"PLATFORM_FEE_BPS","inputs":[],"outputs":[{"name":"","type":"uint256","internalType":"uint256"}],"stateMutability":"view"},{"type":"function","name":"TOTAL_FEE_BPS","inputs":[],"outputs":[{"name":"","type":"uint256","internalType":"uint256"}],"stateMutability":"view"},{"type":"function","name":"cancelRequest","inputs":[{"name":"requestId","type":"uint256","internalType":"uint256"}],"outputs":[],"stateMutability":"nonpayable"},{"type":"function","name":"fulfillRequest","inputs":[{"name":"requestId","type":"uint256","internalType":"uint256"}],"outputs":[{"name":"paymentId","type":"uint256","internalType":"uint256"}],"stateMutability":"nonpayable"},{"type":"function","name":"getMyRequests","inputs":[{"name":"user","type":"address","internalType":"address"}],"outputs":[{"name":"","type":"uint256[]","internalType":"uint256[]"}],"stateMutability":"view"},{"type":"function","name":"getReceivedPayments","inputs":[{"name":"user","type":"address","internalType":"address"}],"outputs":[{"name":"","type":"uint256[]","internalType":"uint256[]"}],"stateMutability":"view"},{"type":"function","name":"getRequestsToMe","inputs":[{"name":"user","type":"address","internalType":"address"}],"outputs":[{"name":"","type":"uint256[]","internalType":"uint256[]"}],"stateMutability":"view"},{"type":"function","name":"getSentPayments","inputs":[{"name":"user","type":"address","internalType":"address"}],"outputs":[{"name":"","type":"uint256[]","internalType":"uint256[]"}],"stateMutability":"view"},{"type":"function","name":"greenFund","inputs":[],"outputs":[{"name":"","type":"address","internalType":"contract GreenFund"}],"stateMutability":"view"},{"type":"function","name":"myRequests","inputs":[{"name":"","type":"address","internalType":"address"},{"name":"","type":"uint256","internalType":"uint256"}],"outputs":[{"name":"","type":"uint256","internalType":"uint256"}],"stateMutability":"view"},{"type":"function","name":"owner","inputs":[],"outputs":[{"name":"","type":"address","internalType":"address"}],"stateMutability":"view"},{"type":"function","name":"payments","inputs":[{"name":"","type":"uint256","internalType":"uint256"}],"outputs":[{"name":"id","type":"uint256","internalType":"uint256"},{"name":"sender","type":"address","internalType":"address"},{"name":"recipient","type":"address","internalType":"address"},{"name":"grossAmount","type":"uint256","internalType":"uint256"},{"name":"netAmount","type":"uint256","internalType":"uint256"},{"name":"platformFee","type":"uint256","internalType":"uint256"},{"name":"greenFee","type":"uint256","internalType":"uint256"},{"name":"note","type":"string","internalType":"string"},{"name":"timestamp","type":"uint256","internalType":"uint256"}],"stateMutability":"view"},{"type":"function","name":"previewSplit","inputs":[{"name":"gross","type":"uint256","internalType":"uint256"}],"outputs":[{"name":"net","type":"uint256","internalType":"uint256"},{"name":"platformFee","type":"uint256","internalType":"uint256"},{"name":"greenFee","type":"uint256","internalType":"uint256"}],"stateMutability":"pure"},{"type":"function","name":"receivedPayments","inputs":[{"name":"","type":"address","internalType":"address"},{"name":"","type":"uint256","internalType":"uint256"}],"outputs":[{"name":"","type":"uint256","internalType":"uint256"}],"stateMutability":"view"},{"type":"function","name":"renounceOwnership","inputs":[],"outputs":[],"stateMutability":"nonpayable"},{"type":"function","name":"requestPayment","inputs":[{"name":"payer","type":"address","internalType":"address"},{"name":"amount","type":"uint256","internalType":"uint256"},{"name":"note","type":"string","internalType":"string"}],"outputs":[{"name":"requestId","type":"uint256","internalType":"uint256"}],"stateMutability":"nonpayable"},{"type":"function","name":"requests","inputs":[{"name":"","type":"uint256","internalType":"uint256"}],"outputs":[{"name":"id","type":"uint256","internalType":"uint256"},{"name":"requester","type":"address","internalType":"address"},{"name":"payer","type":"address","internalType":"address"},{"name":"amount","type":"uint256","internalType":"uint256"},{"name":"note","type":"string","internalType":"string"},{"name":"status","type":"uint8","internalType":"enum GreenPay.RequestStatus"},{"name":"createdAt","type":"uint256","internalType":"uint256"},{"name":"fulfilledAt","type":"uint256","internalType":"uint256"}],"stateMutability":"view"},{"type":"function","name":"requestsToMe","inputs":[{"name":"","type":"address","internalType":"address"},{"name":"","type":"uint256","internalType":"uint256"}],"outputs":[{"name":"","type":"uint256","internalType":"uint256"}],"stateMutability":"view"},{"type":"function","name":"send","inputs":[{"name":"recipient","type":"address","internalType":"address"},{"name":"amount","type":"uint256","internalType":"uint256"},{"name":"note","type":"string","internalType":"string"}],"outputs":[{"name":"paymentId","type":"uint256","internalType":"uint256"}],"stateMutability":"nonpayable"},{"type":"function","name":"sentPayments","inputs":[{"name":"","type":"address","internalType":"address"},{"name":"","type":"uint256","internalType":"uint256"}],"outputs":[{"name":"","type":"uint256","internalType":"uint256"}],"stateMutability":"view"},{"type":"function","name":"setTreasury","inputs":[{"name":"newTreasury","type":"address","internalType":"address"}],"outputs":[],"stateMutability":"nonpayable"},{"type":"function","name":"transferOwnership","inputs":[{"name":"newOwner","type":"address","internalType":"address"}],"outputs":[],"stateMutability":"nonpayable"},{"type":"function","name":"treasury","inputs":[],"outputs":[{"name":"","type":"address","internalType":"address"}],"stateMutability":"view"},{"type":"function","name":"usdc","inputs":[],"outputs":[{"name":"","type":"address","internalType":"contract IERC20"}],"stateMutability":"view"},{"type":"event","name":"OwnershipTransferred","inputs":[{"name":"previousOwner","type":"address","indexed":true,"internalType":"address"},{"name":"newOwner","type":"address","indexed":true,"internalType":"address"}],"anonymous":false},{"type":"event","name":"PaymentRequested","inputs":[{"name":"id","type":"uint256","indexed":true,"internalType":"uint256"},{"name":"requester","type":"address","indexed":true,"internalType":"address"},{"name":"payer","type":"address","indexed":true,"internalType":"address"},{"name":"amount","type":"uint256","indexed":false,"internalType":"uint256"},{"name":"note","type":"string","indexed":false,"internalType":"string"}],"anonymous":false},{"type":"event","name":"PaymentSent","inputs":[{"name":"id","type":"uint256","indexed":true,"internalType":"uint256"},{"name":"sender","type":"address","indexed":true,"internalType":"address"},{"name":"recipient","type":"address","indexed":true,"internalType":"address"},{"name":"grossAmount","type":"uint256","indexed":false,"internalType":"uint256"},{"name":"netAmount","type":"uint256","indexed":false,"internalType":"uint256"},{"name":"platformFee","type":"uint256","indexed":false,"internalType":"uint256"},{"name":"greenFee","type":"uint256","indexed":false,"internalType":"uint256"},{"name":"note","type":"string","indexed":false,"internalType":"string"}],"anonymous":false},{"type":"event","name":"RequestCancelled","inputs":[{"name":"requestId","type":"uint256","indexed":true,"internalType":"uint256"}],"anonymous":false},{"type":"event","name":"RequestFulfilled","inputs":[{"name":"requestId","type":"uint256","indexed":true,"internalType":"uint256"},{"name":"paymentId","type":"uint256","indexed":true,"internalType":"uint256"}],"anonymous":false},{"type":"event","name":"TreasuryUpdated","inputs":[{"name":"oldTreasury","type":"address","indexed":true,"internalType":"address"},{"name":"newTreasury","type":"address","indexed":true,"internalType":"address"}],"anonymous":false},{"type":"error","name":"NotRequester","inputs":[]},{"type":"error","name":"NoteTooLong","inputs":[]},{"type":"error","name":"OwnableInvalidOwner","inputs":[{"name":"owner","type":"address","internalType":"address"}]},{"type":"error","name":"OwnableUnauthorizedAccount","inputs":[{"name":"account","type":"address","internalType":"address"}]},{"type":"error","name":"ReentrancyGuardReentrantCall","inputs":[]},{"type":"error","name":"RequestNotPending","inputs":[]},{"type":"error","name":"SafeERC20FailedOperation","inputs":[{"name":"token","type":"address","internalType":"address"}]},{"type":"error","name":"SelfTransfer","inputs":[]},{"type":"error","name":"ZeroAddress","inputs":[]},{"type":"error","name":"ZeroAmount","inputs":[]}],"bytecode":{"object":"0x60c034620001c657601f620019e538819003918201601f19168301916001600160401b03831184841017620001ca57808492608094604052833981010312620001c65760606200004f82620001de565b916200005e60208201620001de565b6200006c60408301620001de565b6001600160a01b039390928491620000859101620001de565b16938415620001ae57835f549160018060a01b03199680888516175f558260405194167f8be0079c531659141344cd1fd0a4f28419497f9722a3daafe3b4186f6b6457e05f80a360017f9b779b17422d0df92223018b32b4d1fa46e071723d6817e2486d003becc55f005560016002556001600355169081158015620001a3575b801562000198575b6200018957509083916080521660a052169060015416176001556040516117f19081620001f482396080518181816109e6015281816111f60152818161123901528181611271015281816112c50152818161160c0152611649015260a051818181610b600152818161129b015281816112eb015261134a0152f35b63d92e233d60e01b8152600490fd5b50848416156200010e565b508483161562000106565b604051631e4fbdf760e01b81525f6004820152602490fd5b5f80fd5b634e487b7160e01b5f52604160045260245ffd5b51906001600160a01b0382168203620001c65756fe6080806040526004361015610012575f80fd5b5f3560e01c9081621bd97214610c095750806313a6c05f14610bd857806313c14a8614610b8f5780632ff1d0ea14610b4b5780633015394c14610ad1578063347b1b8314610a5e5780633888924e14610a155780633e413bee146109d1578063539aa77f146109b65780635a6d8c881461099b57806361d027b3146109735780636f28507c14610958578063715018a61461090157806381d12c581461084b57806387d81789146107975780638da5cb5b146107705780639a1cd91c146107275780639a91eb0d14610573578063c730428114610500578063d2d36e84146104a9578063d3f7c7bf14610436578063d864284f1461041b578063e1a45218146103ff578063f0f4426014610391578063f2fde38b14610307578063f3e9bd0c146102845763f49bb76b14610144575f80fd5b346102805761015236610f02565b61015d929192611779565b6001600160a01b03841691821561026e5733831461025c57801561024a5760c88211610238577f6fc0bdaac7018bbd96432425178b761d96232c1aeac858716a61ab00a900a9506101bd602096836101b636878a6110f0565b91336111b1565b948592835f526004885261020960405f2092600484015493600660058201549101549060405195869586528c8601526040850152606084015260a06080840152339660a0840191611136565b0390a460017f9b779b17422d0df92223018b32b4d1fa46e071723d6817e2486d003becc55f0055604051908152f35b60405163155be56360e01b8152600490fd5b604051631f2a200560e01b8152600490fd5b604051634d9ecd9160e01b8152600490fd5b60405163d92e233d60e01b8152600490fd5b5f80fd5b3461028057602080600319360112610280576001600160a01b036102a6610eec565b165f526006815260405f209060405190818184549182815201935f52815f20915f905b8282106102f0576102ec856102e081890382611090565b60405191829182610f8d565b0390f35b8354865294850194600193840193909101906102c9565b3461028057602036600319011261028057610320610eec565b6103286116d0565b6001600160a01b03908116908115610379575f54826bffffffffffffffffffffffff60a01b8216175f55167f8be0079c531659141344cd1fd0a4f28419497f9722a3daafe3b4186f6b6457e05f80a3005b604051631e4fbdf760e01b81525f6004820152602490fd5b34610280576020366003190112610280576103aa610eec565b6103b26116d0565b6001600160a01b0390811690811561026e57816001549182167f4ab5be82436d353e61ca18726e984e561f5c1cc7c6d38b29d2553c790434705a5f80a36001600160a01b03191617600155005b34610280575f3660031901126102805760206040516127108152f35b34610280575f366003190112610280576020604051600d8152f35b3461028057602080600319360112610280576001600160a01b03610458610eec565b165f526009815260405f209060405190818184549182815201935f52815f20915f905b828210610492576102ec856102e081890382611090565b83548652948501946001938401939091019061047b565b34610280576040366003190112610280576104c2610eec565b6001600160a01b03165f90815260086020526040902080546024359190821015610280576020916104f291610f64565b90546040519160031b1c8152f35b3461028057602080600319360112610280576001600160a01b03610522610eec565b165f526007815260405f209060405190818184549182815201935f52815f20915f905b82821061055c576102ec856102e081890382611090565b835486529485019460019384019390910190610545565b346102805760203660031901126102805760043561058f611779565b805f52600560205260405f2090600582019182549260ff84166003811015610713576107015760028201546001600160a01b039190821680151590816106f6575b506106e457600160209560ff1916179055426007830155600182019181835416917f6fc0bdaac7018bbd96432425178b761d96232c1aeac858716a61ab00a900a9506106406003840194600486549501946040519161063a83610633818a610fff565b0384611090565b336111b1565b948592835f526004895260405f2091541694549060048101549060066005820154910154916040519384528a8401526040830152606082015260a0608082015280610690339560a0830190610fff565b0390a480604051927f5c69e7026b653d8606b5613bb00fd8c4b0504b1cbe8db600c406faac180924d55f80a360017f9b779b17422d0df92223018b32b4d1fa46e071723d6817e2486d003becc55f00558152f35b6040516371ced2cf60e11b8152600490fd5b9050331415866105d0565b60405163f41814a760e01b8152600490fd5b634e487b7160e01b5f52602160045260245ffd5b3461028057604036600319011261028057610740610eec565b6001600160a01b03165f90815260096020526040902080546024359190821015610280576020916104f291610f64565b34610280575f366003190112610280575f546040516001600160a01b039091168152602090f35b34610280576020366003190112610280576004355f52600460205260405f20805460018060a01b039161084083600183015416936002830154169160038101546004820154600583015490600684015492600860405195610806876107ff8160078501610fff565b0388611090565b015496604051998a998a5260208a015260408901526060880152608087015260a086015260c08501526101208060e08601528401906110b2565b906101008301520390f35b34610280576020366003190112610280576004355f52600560205260405f2080549060018060a01b03908160018201541691600282015416916108e26003830154604051906108a8826108a18160048901610fff565b0383611090565b60ff6005860154169560076006870154960154946040519889526020890152604088015260608701526101008060808801528601906110b2565b91600384101561071357849360a085015260c084015260e08301520390f35b34610280575f366003190112610280576109196116d0565b5f80546001600160a01b0319811682556001600160a01b03167f8be0079c531659141344cd1fd0a4f28419497f9722a3daafe3b4186f6b6457e08280a3005b34610280575f36600319011261028057602060405160198152f35b34610280575f366003190112610280576001546040516001600160a01b039091168152602090f35b34610280575f36600319011261028057602060405160c88152f35b34610280575f366003190112610280576020604051600c8152f35b34610280575f366003190112610280576040517f00000000000000000000000000000000000000000000000000000000000000006001600160a01b03168152602090f35b3461028057604036600319011261028057610a2e610eec565b6001600160a01b03165f90815260066020526040902080546024359190821015610280576020916104f291610f64565b3461028057602080600319360112610280576001600160a01b03610a80610eec565b165f526008815260405f209060405190818184549182815201935f52815f20915f905b828210610aba576102ec856102e081890382611090565b835486529485019460019384019390910190610aa3565b34610280576020366003190112610280576004355f81815260056020526040902060018101546001600160a01b031633036106e457600501805460ff81166003811015610713576107015760ff191660021790557fee243f878b7fc2f54e934ca33783d4395d42bc07612e2bd4b8e0e178639f7a285f80a2005b34610280575f366003190112610280576040517f00000000000000000000000000000000000000000000000000000000000000006001600160a01b03168152602090f35b3461028057604036600319011261028057610ba8610eec565b6001600160a01b03165f90815260076020526040902080546024359190821015610280576020916104f291610f64565b34610280576020366003190112610280576060610bf660043561168a565b9060405192835260208301526040820152f35b3461028057610c1736610f02565b91936001600160a01b03939192919084821615610edd5750338482161461025c57841561024a5760c882116102385760035493610c5385611156565b60035560405191610100830183811067ffffffffffffffff821117610ec957604052858352602083019633885260408401838316815260608501828152610c9b36888a6110f0565b91608087019283525f60a08801524260c08801525f60e0880152895f52600560205260405f209a87518c558660018d01915116906bffffffffffffffffffffffff60a01b91828254161790558660028d01925116908254161790555160038a01555180519067ffffffffffffffff8211610ec9578190610d1e60048c0154610fc7565b601f8111610e79575b50602090601f8311600114610e0e575f92610e03575b50508160011b915f199060031b1c19161760048901555b600588019360a081015193600385101561071357602099600760e0610df8948c997fb40ad097644576a1d47bd587f4d108dbed6ea1685dfa26468582a6707c29d7d99960ff8019835416911617905560c081015160068501550151910155335f5260088a52610dc68660405f20611178565b8084165f5260098a52610ddc8660405f20611178565b604051938493845260408b850152169633966040840191611136565b0390a4604051908152f35b015190508a80610d3d565b60048c015f908152602081209350601f198516905b818110610e615750908460019594939210610e49575b505050811b016004890155610d54565b01515f1960f88460031b161c191690558a8080610e39565b92936020600181928786015181550195019301610e23565b90915060048b015f5260205f20601f840160051c810160208510610ec2575b90849392915b601f830160051c82018110610eb4575050610d27565b5f8155859450600101610e9e565b5080610e98565b634e487b7160e01b5f52604160045260245ffd5b63d92e233d60e01b8152600490fd5b600435906001600160a01b038216820361028057565b906060600319830112610280576004356001600160a01b038116810361028057916024359160443567ffffffffffffffff9283821161028057806023830112156102805781600401359384116102805760248483010111610280576024019190565b8054821015610f79575f5260205f2001905f90565b634e487b7160e01b5f52603260045260245ffd5b602090816040818301928281528551809452019301915f5b828110610fb3575050505090565b835185529381019392810192600101610fa5565b90600182811c92168015610ff5575b6020831014610fe157565b634e487b7160e01b5f52602260045260245ffd5b91607f1691610fd6565b905f929180549161100f83610fc7565b9182825260019384811690815f1461106d5750600114611030575b50505050565b90919394505f52602092835f2092845f945b83861061105957505050500101905f80808061102a565b805485870183015294019385908201611042565b9294505050602093945060ff191683830152151560051b0101905f80808061102a565b90601f8019910116810190811067ffffffffffffffff821117610ec957604052565b91908251928382525f5b8481106110dc575050825f602080949584010152601f8019910116010190565b6020818301810151848301820152016110bc565b92919267ffffffffffffffff8211610ec9576040519161111a601f8201601f191660200184611090565b829481845281830111610280578281602093845f960137010152565b908060209392818452848401375f828201840152601f01601f1916010190565b5f1981146111645760010190565b634e487b7160e01b5f52601160045260245ffd5b805468010000000000000000811015610ec95761119a91600182018155610f64565b819291549060031b91821b915f19901b1916179055565b90939291936111bf8561168a565b6040516323b872dd60e01b5f9081526001600160a01b0387166004523060245260448a9052939892969395939190602087606481807f00000000000000000000000000000000000000000000000000000000000000005af160015f511481161561163e575b816040525f60605215611600575061125d89867f00000000000000000000000000000000000000000000000000000000000000006116fb565b6001546112959088906001600160a01b03167f00000000000000000000000000000000000000000000000000000000000000006116fb565b6112e9817f00000000000000000000000000000000000000000000000000000000000000006001600160a01b03167f00000000000000000000000000000000000000000000000000000000000000006116fb565b7f00000000000000000000000000000000000000000000000000000000000000006001600160a01b03163b1561028057604051631dc1a8e960e11b81526001600160a01b038581166004830152602482018390525f908290604490829084907f0000000000000000000000000000000000000000000000000000000000000000165af180156115f5576115d8575b506002549661138588611156565b6002558799604051948561012081011067ffffffffffffffff61012088011117610ec957610120860160409081528a87526001600160a01b038881166020808a019182528b8316848b0190815260608b0195865260808b0196875260a08b0197885260c08b0198895260e08b01998a52426101008c01528e8e52600491829052938d208a51815591516001830180546001600160a01b0319908116928616929092179055935160028301805490951693169290921790925591516003820155915190820155905160058201559051600682015590518051919291600784019167ffffffffffffffff82116115c45761147d8354610fc7565b601f811161157f575b50602090601f831160011461150b5793604097959383600894610100948c9a986114fe9e9d92611500575b50508160011b915f199060031b1c19161790555b01519101556001600160a01b0316825260066020528282206114e8908590611178565b6001600160a01b03168152600760205220611178565b565b015190505f806114b1565b838952602089209190601f1984168a5b818110611567575084610100946114fe9d9c9a989460409c9a98946008986001951061154f575b505050811b0190556114c5565b01515f1960f88460031b161c191690555f8080611542565b9293602060018192878601518155019501930161151b565b83895260208920601f840160051c810191602085106115ba575b601f0160051c01905b8181106115af5750611486565b5f81556001016115a2565b9091508190611599565b634e487b7160e01b88526041600452602488fd5b90955067ffffffffffffffff8111610ec9576040525f945f611377565b6040513d5f823e3d90fd5b635274afe760e01b81527f00000000000000000000000000000000000000000000000000000000000000006001600160a01b03166004820152602490fd5b6001811516611674577f00000000000000000000000000000000000000000000000000000000000000003b15153d151616611224565b503d5f823e3d90fd5b9190820391821161116457565b600c8102811590828104600c148217156111645761271080910492600d810292818404600d141715611164576116c86116cd9285940493849261167d565b61167d565b92565b5f546001600160a01b031633036116e357565b60405163118cdaa760e01b8152336004820152602490fd5b60405163a9059cbb60e01b5f9081526001600160a01b039384166004526024949094529260209060448180855af160015f511481161561175a575b836040521561174457505050565b635274afe760e01b835216600482015260249150fd5b600181151661177057813b15153d151616611736565b833d5f823e3d90fd5b7f9b779b17422d0df92223018b32b4d1fa46e071723d6817e2486d003becc55f0060028154146117a95760029055565b604051633ee5aeb560e01b8152600490fdfea26469706673582212208c62d05cedd9d99277b596d2ade6e358efbc4a5bd290985938e415b7c47e005f64736f6c63430008140033","linkReferences":{}},"methodIdentifiers":{"BPS_DENOMINATOR()":"e1a45218","GREEN_FEE_BPS()":"d864284f","MAX_NOTE_LENGTH()":"5a6d8c88","PLATFORM_FEE_BPS()":"539aa77f","TOTAL_FEE_BPS()":"6f28507c","cancelRequest(uint256)":"3015394c","fulfillRequest(uint256)":"9a91eb0d","getMyRequests(address)":"347b1b83","getReceivedPayments(address)":"c7304281","getRequestsToMe(address)":"d3f7c7bf","getSentPayments(address)":"f3e9bd0c","greenFund()":"2ff1d0ea","myRequests(address,uint256)":"d2d36e84","owner()":"8da5cb5b","payments(uint256)":"87d81789","previewSplit(uint256)":"13a6c05f","receivedPayments(address,uint256)":"13c14a86","renounceOwnership()":"715018a6","requestPayment(address,uint256,string)":"001bd972","requests(uint256)":"81d12c58","requestsToMe(address,uint256)":"9a1cd91c","send(address,uint256,string)":"f49bb76b","sentPayments(address,uint256)":"3888924e","setTreasury(address)":"f0f44260","transferOwnership(address)":"f2fde38b","treasury()":"61d027b3","usdc()":"3e413bee"},"id":1}