{"abi":[{"type":"constructor","inputs":[{"name":"_usdc","type":"address","internalType":"address"},{"name":"initialOwner","type":"address","internalType":"address"}],"stateMutability":"nonpayable"},{"type":"function","name":"authorizedDepositors","inputs":[{"name":"","type":"address","internalType":"address"}],"outputs":[{"name":"","type":"bool","internalType":"bool"}],"stateMutability":"view"},{"type":"function","name":"balance","inputs":[],"outputs":[{"name":"","type":"uint256","internalType":"uint256"}],"stateMutability":"view"},{"type":"function","name":"contributionOf","inputs":[{"name":"user","type":"address","internalType":"address"}],"outputs":[{"name":"","type":"uint256","internalType":"uint256"}],"stateMutability":"view"},{"type":"function","name":"depositFee","inputs":[{"name":"payer","type":"address","internalType":"address"},{"name":"amount","type":"uint256","internalType":"uint256"}],"outputs":[],"stateMutability":"nonpayable"},{"type":"function","name":"owner","inputs":[],"outputs":[{"name":"","type":"address","internalType":"address"}],"stateMutability":"view"},{"type":"function","name":"renounceOwnership","inputs":[],"outputs":[],"stateMutability":"nonpayable"},{"type":"function","name":"setDepositor","inputs":[{"name":"depositor","type":"address","internalType":"address"},{"name":"status","type":"bool","internalType":"bool"}],"outputs":[],"stateMutability":"nonpayable"},{"type":"function","name":"totalContributions","inputs":[],"outputs":[{"name":"","type":"uint256","internalType":"uint256"}],"stateMutability":"view"},{"type":"function","name":"totalWithdrawn","inputs":[],"outputs":[{"name":"","type":"uint256","internalType":"uint256"}],"stateMutability":"view"},{"type":"function","name":"transferOwnership","inputs":[{"name":"newOwner","type":"address","internalType":"address"}],"outputs":[],"stateMutability":"nonpayable"},{"type":"function","name":"usdc","inputs":[],"outputs":[{"name":"","type":"address","internalType":"contract IERC20"}],"stateMutability":"view"},{"type":"function","name":"userContributions","inputs":[{"name":"","type":"address","internalType":"address"}],"outputs":[{"name":"","type":"uint256","internalType":"uint256"}],"stateMutability":"view"},{"type":"function","name":"withdraw","inputs":[{"name":"project","type":"address","internalType":"address"},{"name":"amount","type":"uint256","internalType":"uint256"},{"name":"description","type":"string","internalType":"string"}],"outputs":[],"stateMutability":"nonpayable"},{"type":"event","name":"DepositorAuthorized","inputs":[{"name":"depositor","type":"address","indexed":true,"internalType":"address"},{"name":"status","type":"bool","indexed":false,"internalType":"bool"}],"anonymous":false},{"type":"event","name":"FundsWithdrawn","inputs":[{"name":"project","type":"address","indexed":true,"internalType":"address"},{"name":"amount","type":"uint256","indexed":false,"internalType":"uint256"},{"name":"description","type":"string","indexed":false,"internalType":"string"}],"anonymous":false},{"type":"event","name":"GreenFeeDeposited","inputs":[{"name":"payer","type":"address","indexed":true,"internalType":"address"},{"name":"amount","type":"uint256","indexed":false,"internalType":"uint256"}],"anonymous":false},{"type":"event","name":"OwnershipTransferred","inputs":[{"name":"previousOwner","type":"address","indexed":true,"internalType":"address"},{"name":"newOwner","type":"address","indexed":true,"internalType":"address"}],"anonymous":false},{"type":"error","name":"NotAuthorized","inputs":[]},{"type":"error","name":"OwnableInvalidOwner","inputs":[{"name":"owner","type":"address","internalType":"address"}]},{"type":"error","name":"OwnableUnauthorizedAccount","inputs":[{"name":"account","type":"address","internalType":"address"}]},{"type":"error","name":"ReentrancyGuardReentrantCall","inputs":[]},{"type":"error","name":"SafeERC20FailedOperation","inputs":[{"name":"token","type":"address","internalType":"address"}]},{"type":"error","name":"ZeroAddress","inputs":[]},{"type":"error","name":"ZeroAmount","inputs":[]}],"bytecode":{"object":"0x60a03461012257601f6108cf38819003918201601f19168301916001600160401b038311848410176101265780849260409485528339810103126101225760206100488261013a565b916001600160a01b0391829161005e910161013a565b1691821561010a575f80546001600160a01b03198116851782556040519491908416907f8be0079c531659141344cd1fd0a4f28419497f9722a3daafe3b4186f6b6457e09080a360017f9b779b17422d0df92223018b32b4d1fa46e071723d6817e2486d003becc55f0055169081156100fb5750608052604051610780908161014f82396080518181816102000152818161036701526105a50152f35b63d92e233d60e01b8152600490fd5b604051631e4fbdf760e01b81525f6004820152602490fd5b5f80fd5b634e487b7160e01b5f52604160045260245ffd5b51906001600160a01b03821682036101225756fe60806040818152600480361015610014575f80fd5b5f92833560e01c9081630f6ca1a8146106b05750806337c08923146106915780633b8351d2146105d45780633e413bee146105905780634b319713146105735780636f860d74146104db578063715018a61461047e57806372402e00146104405780638da5cb5b14610418578063b69ef8a81461033c578063d7805ece14610304578063e088747b146101385763f2fde38b146100af575f80fd5b34610134576020366003190112610134576100c86106e4565b906100d161071f565b6001600160a01b0391821692831561011e57505082546001600160a01b0319811683178455167f8be0079c531659141344cd1fd0a4f28419497f9722a3daafe3b4186f6b6457e08380a380f35b51631e4fbdf760e01b8152908101849052602490fd5b8280fd5b50829034610300576060366003190112610300576101546106e4565b9060243567ffffffffffffffff6044358181116102fc57366023820112156102fc57808401359182116102fc5736602483830101116102fc5761019561071f565b7f9b779b17422d0df92223018b32b4d1fa46e071723d6817e2486d003becc55f009460028654146102ec57600286556001600160a01b039081169485156102de5784156102d0576101e78582546106fe565b8155885163a9059cbb60e01b89528682526024869052917f000000000000000000000000000000000000000000000000000000000000000060208a60448180855af160018b51148116156102b1575b848c521561029c578960018a8a7fd30b68ba794ba733ec10c7ddce3e044482efdaa4c2e6b3d233800535afe5139b8f60608d8d8060248f828751978896875280602088015286015201848401378181018301899052601f01601f19168101030190a25580f35b635274afe760e01b8452169082015260249150fd5b60018115166102c757813b15153d151616610236565b843d8c823e3d90fd5b8851631f2a200560e01b8152fd5b885163d92e233d60e01b8152fd5b8751633ee5aeb560e01b81528590fd5b8580fd5b5080fd5b5050346103005760203660031901126103005760209181906001600160a01b0361032c6106e4565b1681526002845220549051908152f35b50903461013457826003193601126101345780516370a0823160e01b815230838201526020816024817f00000000000000000000000000000000000000000000000000000000000000006001600160a01b03165afa92831561040e5784936103a9575b6020848451908152f35b909192506020903d8211610406575b601f8201601f191683019067ffffffffffffffff8211848310176103f357506020918391855281010312610134576020925051905f8061039f565b634e487b7160e01b865260419052602485fd5b3d91506103b8565b82513d86823e3d90fd5b505034610300578160031936011261030057905490516001600160a01b039091168152602090f35b5050346103005760203660031901126103005760209160ff9082906001600160a01b0361046b6106e4565b1681526001855220541690519015158152f35b83346104d857806003193601126104d85761049761071f565b80546001600160a01b03198116825581906001600160a01b03167f8be0079c531659141344cd1fd0a4f28419497f9722a3daafe3b4186f6b6457e08280a380f35b80fd5b5090346101345780600319360112610134576104f56106e4565b906024359182151580930361056f5761050c61071f565b6001600160a01b031692831561056157507fef3151b6a5db831387326a878aedf3ca24c3be8781462b37f692ea6ea3d78c86916020918486526001835280862060ff1981541660ff841617905551908152a280f35b905163d92e233d60e01b8152fd5b8480fd5b503461013457826003193601126101345760209250549051908152f35b505034610300578160031936011261030057517f00000000000000000000000000000000000000000000000000000000000000006001600160a01b03168152602090f35b5090346101345780600319360112610134576105ee6106e4565b9060243591338552600160205260ff828620541615610681578215610671576001600160a01b031692831561056157507fc17584958476b0c945409b47f5baff58eb93067e96a57d1b866df9c6fecb1c2e91602091848652600283528086206106588382546106fe565b9055610666826003546106fe565b60035551908152a280f35b8151631f2a200560e01b81528490fd5b815163ea8e4eb560e01b81528490fd5b5050346103005781600319360112610300576020906003549051908152f35b84908434610134576020366003190112610134576020926001600160a01b036106d76106e4565b1681526002845220548152f35b600435906001600160a01b03821682036106fa57565b5f80fd5b9190820180921161070b57565b634e487b7160e01b5f52601160045260245ffd5b5f546001600160a01b0316330361073257565b60405163118cdaa760e01b8152336004820152602490fdfea2646970667358221220f08a8628f0d542f0a93e9bde21a25ffbcb1e46e64d6d23543a65c6e9000c7af964736f6c63430008140033","linkReferences":{}},"methodIdentifiers":{"authorizedDepositors(address)":"72402e00","balance()":"b69ef8a8","contributionOf(address)":"d7805ece","depositFee(address,uint256)":"3b8351d2","owner()":"8da5cb5b","renounceOwnership()":"715018a6","setDepositor(address,bool)":"6f860d74","totalContributions()":"37c08923","totalWithdrawn()":"4b319713","transferOwnership(address)":"f2fde38b","usdc()":"3e413bee","userContributions(address)":"0f6ca1a8","withdraw(address,uint256,string)":"e088747b"},"id":0}