{"abi":[{"type":"constructor","inputs":[{"name":"_usdc","type":"address","internalType":"address"},{"name":"_greenFund","type":"address","internalType":"address"},{"name":"_treasury","type":"address","internalType":"address"},{"name":"initialOwner","type":"address","internalType":"address"}],"stateMutability":"nonpayable"},{"type":"function","name":"BPS_DENOMINATOR","inputs":[],"outputs":[{"name":"","type":"uint256","internalType":"uint256"}],"stateMutability":"view"},{"type":"function","name":"GREEN_FEE_BPS","inputs":[],"outputs":[{"name":"","type":"uint256","internalType":"uint256"}],"stateMutability":"view"},{"type":"function","name":"MAX_DESC_LENGTH","inputs":[],"outputs":[{"name":"","type":"uint256","internalType":"uint256"}],"stateMutability":"view"},{"type":"function","name":"MAX_ITEMS","inputs":[],"outputs":[{"name":"","type":"uint256","internalType":"uint256"}],"stateMutability":"view"},{"type":"function","name":"PLATFORM_FEE_BPS","inputs":[],"outputs":[{"name":"","type":"uint256","internalType":"uint256"}],"stateMutability":"view"},{"type":"function","name":"TOTAL_FEE_BPS","inputs":[],"outputs":[{"name":"","type":"uint256","internalType":"uint256"}],"stateMutability":"view"},{"type":"function","name":"cancelInvoice","inputs":[{"name":"invoiceId","type":"uint256","internalType":"uint256"}],"outputs":[],"stateMutability":"nonpayable"},{"type":"function","name":"createInvoice","inputs":[{"name":"client","type":"address","internalType":"address"},{"name":"items","type":"tuple[]","internalType":"struct InvoiceManager.LineItem[]","components":[{"name":"description","type":"string","internalType":"string"},{"name":"quantity","type":"uint256","internalType":"uint256"},{"name":"unitPrice","type":"uint256","internalType":"uint256"}]},{"name":"title","type":"string","internalType":"string"},{"name":"description","type":"string","internalType":"string"},{"name":"dueDate","type":"uint256","internalType":"uint256"}],"outputs":[{"name":"invoiceId","type":"uint256","internalType":"uint256"}],"stateMutability":"nonpayable"},{"type":"function","name":"disputeInvoice","inputs":[{"name":"invoiceId","type":"uint256","internalType":"uint256"},{"name":"reason","type":"string","internalType":"string"}],"outputs":[],"stateMutability":"nonpayable"},{"type":"function","name":"disputeReasons","inputs":[{"name":"","type":"uint256","internalType":"uint256"}],"outputs":[{"name":"","type":"string","internalType":"string"}],"stateMutability":"view"},{"type":"function","name":"getIssuedInvoices","inputs":[{"name":"user","type":"address","internalType":"address"}],"outputs":[{"name":"","type":"uint256[]","internalType":"uint256[]"}],"stateMutability":"view"},{"type":"function","name":"getLineItems","inputs":[{"name":"invoiceId","type":"uint256","internalType":"uint256"}],"outputs":[{"name":"","type":"tuple[]","internalType":"struct InvoiceManager.LineItem[]","components":[{"name":"description","type":"string","internalType":"string"},{"name":"quantity","type":"uint256","internalType":"uint256"},{"name":"unitPrice","type":"uint256","internalType":"uint256"}]}],"stateMutability":"view"},{"type":"function","name":"getReceivedInvoices","inputs":[{"name":"user","type":"address","internalType":"address"}],"outputs":[{"name":"","type":"uint256[]","internalType":"uint256[]"}],"stateMutability":"view"},{"type":"function","name":"greenFund","inputs":[],"outputs":[{"name":"","type":"address","internalType":"contract GreenFund"}],"stateMutability":"view"},{"type":"function","name":"invoiceItems","inputs":[{"name":"","type":"uint256","internalType":"uint256"},{"name":"","type":"uint256","internalType":"uint256"}],"outputs":[{"name":"description","type":"string","internalType":"string"},{"name":"quantity","type":"uint256","internalType":"uint256"},{"name":"unitPrice","type":"uint256","internalType":"uint256"}],"stateMutability":"view"},{"type":"function","name":"invoices","inputs":[{"name":"","type":"uint256","internalType":"uint256"}],"outputs":[{"name":"id","type":"uint256","internalType":"uint256"},{"name":"issuer","type":"address","internalType":"address"},{"name":"client","type":"address","internalType":"address"},{"name":"totalAmount","type":"uint256","internalType":"uint256"},{"name":"platformFee","type":"uint256","internalType":"uint256"},{"name":"greenFee","type":"uint256","internalType":"uint256"},{"name":"netAmount","type":"uint256","internalType":"uint256"},{"name":"title","type":"string","internalType":"string"},{"name":"description","type":"string","internalType":"string"},{"name":"dueDate","type":"uint256","internalType":"uint256"},{"name":"status","type":"uint8","internalType":"enum InvoiceManager.InvoiceStatus"},{"name":"createdAt","type":"uint256","internalType":"uint256"},{"name":"paidAt","type":"uint256","internalType":"uint256"},{"name":"paidBy","type":"address","internalType":"address"}],"stateMutability":"view"},{"type":"function","name":"issuedInvoices","inputs":[{"name":"","type":"address","internalType":"address"},{"name":"","type":"uint256","internalType":"uint256"}],"outputs":[{"name":"","type":"uint256","internalType":"uint256"}],"stateMutability":"view"},{"type":"function","name":"owner","inputs":[],"outputs":[{"name":"","type":"address","internalType":"address"}],"stateMutability":"view"},{"type":"function","name":"payInvoice","inputs":[{"name":"invoiceId","type":"uint256","internalType":"uint256"}],"outputs":[],"stateMutability":"nonpayable"},{"type":"function","name":"previewFee","inputs":[{"name":"amount","type":"uint256","internalType":"uint256"}],"outputs":[{"name":"net","type":"uint256","internalType":"uint256"},{"name":"platformFee","type":"uint256","internalType":"uint256"},{"name":"greenFee","type":"uint256","internalType":"uint256"}],"stateMutability":"pure"},{"type":"function","name":"receivedInvoices","inputs":[{"name":"","type":"address","internalType":"address"},{"name":"","type":"uint256","internalType":"uint256"}],"outputs":[{"name":"","type":"uint256","internalType":"uint256"}],"stateMutability":"view"},{"type":"function","name":"renounceOwnership","inputs":[],"outputs":[],"stateMutability":"nonpayable"},{"type":"function","name":"resolveDispute","inputs":[{"name":"invoiceId","type":"uint256","internalType":"uint256"}],"outputs":[],"stateMutability":"nonpayable"},{"type":"function","name":"setTreasury","inputs":[{"name":"newTreasury","type":"address","internalType":"address"}],"outputs":[],"stateMutability":"nonpayable"},{"type":"function","name":"transferOwnership","inputs":[{"name":"newOwner","type":"address","internalType":"address"}],"outputs":[],"stateMutability":"nonpayable"},{"type":"function","name":"treasury","inputs":[],"outputs":[{"name":"","type":"address","internalType":"address"}],"stateMutability":"view"},{"type":"function","name":"usdc","inputs":[],"outputs":[{"name":"","type":"address","internalType":"contract IERC20"}],"stateMutability":"view"},{"type":"event","name":"InvoiceCancelled","inputs":[{"name":"id","type":"uint256","indexed":true,"internalType":"uint256"}],"anonymous":false},{"type":"event","name":"InvoiceCreated","inputs":[{"name":"id","type":"uint256","indexed":true,"internalType":"uint256"},{"name":"issuer","type":"address","indexed":true,"internalType":"address"},{"name":"client","type":"address","indexed":true,"internalType":"address"},{"name":"totalAmount","type":"uint256","indexed":false,"internalType":"uint256"},{"name":"dueDate","type":"uint256","indexed":false,"internalType":"uint256"}],"anonymous":false},{"type":"event","name":"InvoiceDisputed","inputs":[{"name":"id","type":"uint256","indexed":true,"internalType":"uint256"},{"name":"disputedBy","type":"address","indexed":true,"internalType":"address"},{"name":"reason","type":"string","indexed":false,"internalType":"string"}],"anonymous":false},{"type":"event","name":"InvoicePaid","inputs":[{"name":"id","type":"uint256","indexed":true,"internalType":"uint256"},{"name":"paidBy","type":"address","indexed":true,"internalType":"address"},{"name":"grossAmount","type":"uint256","indexed":false,"internalType":"uint256"},{"name":"netAmount","type":"uint256","indexed":false,"internalType":"uint256"},{"name":"platformFee","type":"uint256","indexed":false,"internalType":"uint256"},{"name":"greenFee","type":"uint256","indexed":false,"internalType":"uint256"}],"anonymous":false},{"type":"event","name":"InvoiceResolved","inputs":[{"name":"id","type":"uint256","indexed":true,"internalType":"uint256"}],"anonymous":false},{"type":"event","name":"OwnershipTransferred","inputs":[{"name":"previousOwner","type":"address","indexed":true,"internalType":"address"},{"name":"newOwner","type":"address","indexed":true,"internalType":"address"}],"anonymous":false},{"type":"event","name":"TreasuryUpdated","inputs":[{"name":"oldTreasury","type":"address","indexed":true,"internalType":"address"},{"name":"newTreasury","type":"address","indexed":true,"internalType":"address"}],"anonymous":false},{"type":"error","name":"DescriptionTooLong","inputs":[]},{"type":"error","name":"DueDateInPast","inputs":[]},{"type":"error","name":"InvalidStatus","inputs":[{"name":"current","type":"uint8","internalType":"enum InvoiceManager.InvoiceStatus"}]},{"type":"error","name":"InvoiceExpired","inputs":[]},{"type":"error","name":"NotClient","inputs":[]},{"type":"error","name":"NotIssuer","inputs":[]},{"type":"error","name":"OwnableInvalidOwner","inputs":[{"name":"owner","type":"address","internalType":"address"}]},{"type":"error","name":"OwnableUnauthorizedAccount","inputs":[{"name":"account","type":"address","internalType":"address"}]},{"type":"error","name":"ReentrancyGuardReentrantCall","inputs":[]},{"type":"error","name":"SafeERC20FailedOperation","inputs":[{"name":"token","type":"address","internalType":"address"}]},{"type":"error","name":"TooManyItems","inputs":[]},{"type":"error","name":"ZeroAddress","inputs":[]},{"type":"error","name":"ZeroAmount","inputs":[]},{"type":"error","name":"ZeroItems","inputs":[]}],"bytecode":{"object":"0x60c0346200019057601f62001ce538819003918201601f19168301916001600160401b038311848410176200019457808492608094604052833981010312620001905760606200004f82620001a8565b916200005e60208201620001a8565b6200006c60408301620001a8565b6001600160a01b039390928491620000859101620001a8565b169384156200017857835f549160018060a01b03199680888516175f558260405194167f8be0079c531659141344cd1fd0a4f28419497f9722a3daafe3b4186f6b6457e05f80a360017f9b779b17422d0df92223018b32b4d1fa46e071723d6817e2486d003becc55f005560016002551690811580156200016d575b801562000162575b6200015357509083916080521660a05216906001541617600155604051611b279081620001be82396080518181816105410152610d01015260a0518181816105d201526115db0152f35b63d92e233d60e01b8152600490fd5b508484161562000109565b508483161562000101565b604051631e4fbdf760e01b81525f6004820152602490fd5b5f80fd5b634e487b7160e01b5f52604160045260245ffd5b51906001600160a01b0382168203620001905756fe6080806040526004361015610012575f80fd5b5f90813560e01c90816313ca514714611649575080632eb524251461160a5780632ff1d0ea146115c557806335e856f214611593578063362ce09f1461152057806339524669146114d85780633ad6a6d814610d305780633e413bee14610ceb5780634591ef1a14610cce57806347829ac614610b8c5780634e6d140514610a88578063539aa77f14610a6c57806357d4c4ee14610a5057806361d027b314610a275780636f28507c14610a0b578063715018a6146109b1578063756344e01461095b5780638da5cb5b1461093457806393351bc01461075d578063ac60a6cd1461044f578063c2b7b868146103db578063cf37613e14610354578063d864284f14610338578063da9c273d14610270578063e1a4521814610253578063f0f44260146101d15763f2fde38b14610147575f80fd5b346101ce5760203660031901126101ce576101606116ba565b610168611a48565b6001600160a01b039081169081156101b5575f54826001600160601b0360a01b8216175f55167f8be0079c531659141344cd1fd0a4f28419497f9722a3daafe3b4186f6b6457e05f80a380f35b604051631e4fbdf760e01b815260048101849052602490fd5b80fd5b50346101ce5760203660031901126101ce576101eb6116ba565b6101f3611a48565b6001600160a01b0390811690811561024157816001549182167f4ab5be82436d353e61ca18726e984e561f5c1cc7c6d38b29d2553c790434705a8580a36001600160a01b0319161760015580f35b60405163d92e233d60e01b8152600490fd5b50346101ce57806003193601126101ce5760206040516127108152f35b50346101ce5760203660031901126101ce57600480358083526020919091526040822060018101546001600160a01b0316330361032657600a01805460ff8116600681101561031257600181036102f2575060ff191660031790557f2e9842040508f80e6420769a8673529eb3af5b952f53af83d9c9d3432da780468280a280f35b604051633ba7bf8960e11b81526024916103109060048301906118c9565bfd5b634e487b7160e01b85526021600452602485fd5b6040516354ec506360e01b8152600490fd5b50346101ce57806003193601126101ce576020604051600d8152f35b50346101ce576020806003193601126103d7576001600160a01b036103776116ba565b1682526006815260408220916040518092808554928381520194835280832092905b8282106103c0576103bc856103b081890382611746565b604051918291826116d4565b0390f35b835486529485019460019384019390910190610399565b5080fd5b50346101ce5760203660031901126101ce576004356103f8611a48565b8082526004602052600a6040832001805460ff8116600681101561031257600481036102f2575060ff191660051790557fa55413be30548d21a41d16cd0e7faa4e6815c63de579c41ec99bb28863a2a9d58280a280f35b50346101ce5760203660031901126101ce577f9b779b17422d0df92223018b32b4d1fa46e071723d6817e2486d003becc55f00600281541461074b5760028155600435825260046020526040822090600a82015460ff8116926006841015610312576001938481036102f2575060028101546001600160a01b031680151580610741575b61072f5760098201548015159081610725575b50610713576003820154926104fa84611a07565b9491509260026105138661050e878a6119fa565b6119fa565b60ff1990941617600a83015542600c830155600d820180546001600160a01b03191633179055156106f7575b7f0000000000000000000000000000000000000000000000000000000000000000906040516323b872dd60e01b8a5233600452306024528660445260208a60648180875af1898b51148116156106d9575b816040528a606052156106bb57508701548891906105b99084906001600160a01b031683611a73565b87546105d09085906001600160a01b031683611a73565b7f00000000000000000000000000000000000000000000000000000000000000006001600160a01b0316906106089086908390611a73565b803b156103d7578190604460405180948193631dc1a8e960e11b83523360048401528960248401525af180156106b057610681575b5060405193845260208401526040830152606082015233907fe46cf57338646fc8d7ce6815e8e3810b5ee099f1e5e3415d0b89dc5384b2d4e8608060043592a35580f35b6001600160401b03819892981161069c57604052955f61063d565b634e487b7160e01b82526041600452602482fd5b6040513d8a823e3d90fd5b635274afe760e01b81526001600160a01b0383166004820152602490fd5b898115166106ee57833b15153d151616610590565b503d8a823e3d90fd5b338852600660205261070e60043560408a206119c6565b61053f565b604051630f04e9cf60e41b8152600490fd5b905042115f6104e6565b604051630836f21d60e21b8152600490fd5b50338114156104d3565b604051633ee5aeb560e01b8152600490fd5b50346101ce5760403660031901126101ce576001600160401b036004356024358281116109305761079290369060040161189c565b8285526004602090815260408620600d81015492959391926001600160a01b0316330361072f57600a01805460ff8116600681101561091c57600281036102f2575060ff191660041790558386526007825260408620928511610908578490610805826107ff865461170e565b86611951565b8693601f831160011461088757827ffb6c9791c15996c332dc1393414a00d034442812d39e5ef79b6be51961efc92895899161087c575b508360011b905f198560031b1c19161790555b8160405193808552840152604083013784604085830101526040813395601f80199101168101030190a380f35b90508201355f61083c565b808852838820601f19841695895b8781106108ee5750847ffb6c9791c15996c332dc1393414a00d034442812d39e5ef79b6be51961efc92897106108d5575b5050600183811b01905561084f565b8301355f19600386901b60f8161c191690555f806108c6565b818501358355899550600190920191908601908601610895565b634e487b7160e01b86526041600452602486fd5b634e487b7160e01b89526021600452602489fd5b8380fd5b50346101ce57806003193601126101ce57546040516001600160a01b039091168152602090f35b50346101ce5760403660031901126101ce576109756116ba565b6001600160a01b03168152600560205260408120805460243592908310156101ce5760206109a38484611887565b90546040519160031b1c8152f35b50346101ce57806003193601126101ce576109ca611a48565b80546001600160a01b03198116825581906001600160a01b03167f8be0079c531659141344cd1fd0a4f28419497f9722a3daafe3b4186f6b6457e08280a380f35b50346101ce57806003193601126101ce57602060405160198152f35b50346101ce57806003193601126101ce576001546040516001600160a01b039091168152602090f35b50346101ce57806003193601126101ce57602060405160148152f35b50346101ce57806003193601126101ce576020604051600c8152f35b50346101ce5760203660031901126101ce5760043581526004602052604090208054600160a01b60019003806001840154169281600282015416906003810154926004820154936005830154600684015460078501610ae69061177b565b90610af36008870161177b565b92600987015498600a88015460ff1695600b89015497600c8a015499600d015416996040519d8e809e81526020015260408d015260608c015260808b015260a08a015260c08901526101c08060e08a01528801610b4f9161181c565b878103610100890152610b619161181c565b946101208701526101408601610b76916118c9565b6101608501526101808401526101a08301520390f35b50346101ce576020806003193601126103d75760043582526003808252604083209081546001600160401b039182821161090857604051949592610bd6600584901b880187611746565b82865286860190819585528785209085925b858410610c6b57505050505050604051928484019085855251809152604084019460408260051b8601019392955b828710610c235785850386f35b909192938280600192603f19898203018552875190604080610c4d8451606080865285019061181c565b93858101518685015201519101529601920196019592919092610c16565b604099989699516060810181811084821117610cba5760019287928c92604052610c948761177b565b815284870154838201526002870154604082015281520193019301929198959798610be8565b634e487b7160e01b8c52604160045260248cfd5b50346101ce57806003193601126101ce5760206040516101f48152f35b50346101ce57806003193601126101ce576040517f00000000000000000000000000000000000000000000000000000000000000006001600160a01b03168152602090f35b50346101ce5760a03660031901126101ce57610d4a6116ba565b602435906001600160401b0382116114d457366023830112156114d4576001600160401b038260040135116114d457366024836004013560051b840101116114d4576044356001600160401b03811161093057610dab90369060040161189c565b91909260649283356001600160401b0381116114d057610dcf90369060040161189c565b6001600160a01b0385163314610241578360040135156114be5760148460040135116114ac576101f4811161149a5760843515158061148e575b61147c57879588905b856004013582106113f957505085156113e757610e2e86611a07565b989160029591955499610e408b6118ea565b60025560405196876101c08101106001600160401b036101c08a0111176113d3576101c0880160409081528c89523360208a01526001600160a01b038b1690890152606088018b9052608088015260a087015260c0860152610eb5939291610ea991369161190c565b60e0850152369161190c565b61010082015260843561012082015260016101408201524261016082015285610180820152856101a08201528486526004602052604086208151815560018060a01b036020830151166001600160601b0360a01b6001830154161760018201556002810160018060a01b036040840151166001600160601b0360a01b825416179055606082015160038201556080820151600482015560a0820151600582015560c0820151600682015560e08201518051906001600160401b0382116112b9578190610f9182610f88600787015461170e565b60078701611951565b602090601f8311600114611365578a9261135a575b50508160011b915f199060031b1c19161760078201555b6101008201518051906001600160401b0382116112b9578190610ff082610fe7600887015461170e565b60088701611951565b602090601f83116001146112ec578a926112e1575b50508160011b915f199060031b1c19161760088201555b610120820151600982015561014082015160068110156112cd5790600d91600a82019060ff80198354169116179055610160830151600b820155610180830151600c82015501906101a060018060a01b03910151166001600160601b0360a01b825416179055845b81600401358110611125575050602093338152600585526110a884604083206119c6565b836001600160a01b0383166110ff575b50506040519182526084358483015260018060a01b031690827f3fbaae0f1597d7f24bf2231a5fe5248190743aecc5f3da7126965e14e3f1ca4d60403393a4604051908152f35b6001600160a01b038316825260068652604090912061111e91906119c6565b5f836110b8565b848652600360205260408620611143828460040135602486016119a4565b90805490600160401b8210156112b957906111639160018201815561185a565b9190916112a5578035601e19823603018112156112a1576001600160401b0381830135116112a157808201353603602082840101136112a1576111b3818301356111ad855461170e565b85611951565b88601f828401351160011461121b576112069493926002926040928c908284013561120b575b508183013560011b915f199084013560031b1c19161784555b6020810135600185015501359101556118ea565b611084565b602091508284010101355f6111d9565b838a5260208a20908a5b84840135601f19168110611285575061120695949360029360409391926001929082850135601f19811610611264575b5050820135811b0184556111f2565b60205f1960f88588013560031b161c19918487010101351690555f80611255565b90916020600181928286888a0101013581550193019101611225565b8880fd5b634e487b7160e01b88526004889052602488fd5b634e487b7160e01b89526041600452602489fd5b634e487b7160e01b88526021600452602488fd5b015190505f80611005565b9250600884018a5260208a20908a935b601f198416851061133f576001945083601f19811610611327575b505050811b01600882015561101c565b01515f1960f88460031b161c191690555f8080611317565b818101518355602094850194600190930192909101906112fc565b015190505f80610fa6565b9250600784018a5260208a20908a935b601f19841685106113b8576001945083601f198116106113a0575b505050811b016007820155610fbd565b01515f1960f88460031b161c191690555f8080611390565b81810151835560209485019460019093019290910190611375565b634e487b7160e01b8d52604160045260248dfd5b604051631f2a200560e01b8152600490fd5b9096602061140f89886004013560248a016119a4565b013560406114258a896004013560248b016119a4565b0135908181029181830414901517156114685782900481018091116114545761144e90976118ea565b90610e12565b634e487b7160e01b8a52601160045260248afd5b634e487b7160e01b8b52601160045260248bfd5b60405163b022c8db60e01b8152600490fd5b50426084351115610e09565b604051630d7cfc5960e41b8152600490fd5b60405163d6ce581160e01b8152600490fd5b604051630cc00c1b60e21b8152600490fd5b8680fd5b8280fd5b50346101ce5760403660031901126101ce576114f26116ba565b6001600160a01b03168152600660205260408120805460243592908310156101ce5760206109a38484611887565b50346101ce5760403660031901126101ce576024359060043581526003602052604081209081548310156101ce5761158461155b848461185a565b506115658161177b565b906002600182015491015460405193849360608552606085019061181c565b91602084015260408301520390f35b50346101ce5760203660031901126101ce5760606115b2600435611a07565b9060405192835260208301526040820152f35b50346101ce57806003193601126101ce576040517f00000000000000000000000000000000000000000000000000000000000000006001600160a01b03168152602090f35b50346101ce5760203660031901126101ce5761163560406103bc92600435815260076020522061177b565b60405191829160208352602083019061181c565b9050346103d7576020806003193601126114d457916001600160a01b0361166e6116ba565b16815260058352604081209283549081845280840194835280832092905b8282106116a3576103bc856103b081890382611746565b83548652948501946001938401939091019061168c565b600435906001600160a01b03821682036116d057565b5f80fd5b602090816040818301928281528551809452019301915f5b8281106116fa575050505090565b8351855293810193928101926001016116ec565b90600182811c9216801561173c575b602083101461172857565b634e487b7160e01b5f52602260045260245ffd5b91607f169161171d565b90601f801991011681019081106001600160401b0382111761176757604052565b634e487b7160e01b5f52604160045260245ffd5b9060405191825f82549261178e8461170e565b9081845260019485811690815f146117f957506001146117b9575b50506117b792500383611746565b565b909391505f52602090815f20935f915b8183106117e15750506117b793508201015f806117a9565b855488840185015294850194879450918301916117c9565b9150506117b794506020925060ff191682840152151560051b8201015f806117a9565b91908251928382525f5b848110611846575050825f602080949584010152601f8019910116010190565b602081830181015184830182015201611826565b8054821015611873575f52600360205f20910201905f90565b634e487b7160e01b5f52603260045260245ffd5b8054821015611873575f5260205f2001905f90565b9181601f840112156116d0578235916001600160401b0383116116d057602083818601950101116116d057565b9060068210156118d65752565b634e487b7160e01b5f52602160045260245ffd5b5f1981146118f85760010190565b634e487b7160e01b5f52601160045260245ffd5b9291926001600160401b0382116117675760405191611935601f8201601f191660200184611746565b8294818452818301116116d0578281602093845f960137010152565b90601f811161195f57505050565b5f91825260208220906020601f850160051c8301941061199a575b601f0160051c01915b82811061198f57505050565b818155600101611983565b909250829061197a565b91908110156118735760051b81013590605e19813603018212156116d0570190565b8054600160401b811015611767576119e391600182018155611887565b819291549060031b91821b915f19901b1916179055565b919082039182116118f857565b600c8102811590828104600c148217156118f85761271080910492600d810292818404600d1417156118f85761050e611a45928594049384926119fa565b92565b5f546001600160a01b03163303611a5b57565b60405163118cdaa760e01b8152336004820152602490fd5b60405163a9059cbb60e01b5f9081526001600160a01b039384166004526024949094529260209060448180855af160015f5114811615611ad2575b8360405215611abc57505050565b635274afe760e01b835216600482015260249150fd5b6001811516611ae857813b15153d151616611aae565b833d5f823e3d90fdfea26469706673582212201fcde4c6c0c8a20a3d8970e48439f5b3ea3743cb895dfe304773f75a4654373064736f6c63430008140033","linkReferences":{}},"methodIdentifiers":{"BPS_DENOMINATOR()":"e1a45218","GREEN_FEE_BPS()":"d864284f","MAX_DESC_LENGTH()":"4591ef1a","MAX_ITEMS()":"57d4c4ee","PLATFORM_FEE_BPS()":"539aa77f","TOTAL_FEE_BPS()":"6f28507c","cancelInvoice(uint256)":"da9c273d","createInvoice(address,(string,uint256,uint256)[],string,string,uint256)":"3ad6a6d8","disputeInvoice(uint256,string)":"93351bc0","disputeReasons(uint256)":"2eb52425","getIssuedInvoices(address)":"13ca5147","getLineItems(uint256)":"47829ac6","getReceivedInvoices(address)":"cf37613e","greenFund()":"2ff1d0ea","invoiceItems(uint256,uint256)":"362ce09f","invoices(uint256)":"4e6d1405","issuedInvoices(address,uint256)":"756344e0","owner()":"8da5cb5b","payInvoice(uint256)":"ac60a6cd","previewFee(uint256)":"35e856f2","receivedInvoices(address,uint256)":"39524669","renounceOwnership()":"715018a6","resolveDispute(uint256)":"c2b7b868","setTreasury(address)":"f0f44260","transferOwnership(address)":"f2fde38b","treasury()":"61d027b3","usdc()":"3e413bee"},"id":2}